{
  "contractName": "RaceSwap_vulnerable",
  "abi": [
    {
      "inputs": [
        {
          "internalType": "uint256",
          "name": "initialRate",
          "type": "uint256"
        }
      ],
      "stateMutability": "nonpayable",
      "type": "constructor"
    },
    {
      "anonymous": false,
      "inputs": [
        {
          "indexed": true,
          "internalType": "address",
          "name": "updater",
          "type": "address"
        },
        {
          "indexed": false,
          "internalType": "uint256",
          "name": "newRate",
          "type": "uint256"
        },
        {
          "indexed": false,
          "internalType": "string",
          "name": "note",
          "type": "string"
        }
      ],
      "name": "RateUpdated",
      "type": "event"
    },
    {
      "anonymous": false,
      "inputs": [
        {
          "indexed": true,
          "internalType": "address",
          "name": "team",
          "type": "address"
        },
        {
          "indexed": false,
          "internalType": "uint256",
          "name": "amount",
          "type": "uint256"
        },
        {
          "indexed": false,
          "internalType": "string",
          "name": "race",
          "type": "string"
        }
      ],
      "name": "SponsorPayoutExecuted",
      "type": "event"
    },
    {
      "anonymous": false,
      "inputs": [
        {
          "indexed": true,
          "internalType": "address",
          "name": "user",
          "type": "address"
        },
        {
          "indexed": true,
          "internalType": "address",
          "name": "tokenIn",
          "type": "address"
        },
        {
          "indexed": true,
          "internalType": "address",
          "name": "tokenOut",
          "type": "address"
        },
        {
          "indexed": false,
          "internalType": "uint256",
          "name": "amountIn",
          "type": "uint256"
        },
        {
          "indexed": false,
          "internalType": "uint256",
          "name": "amountOut",
          "type": "uint256"
        },
        {
          "indexed": false,
          "internalType": "string",
          "name": "race",
          "type": "string"
        }
      ],
      "name": "SwapExecuted",
      "type": "event"
    },
    {
      "inputs": [],
      "name": "owner",
      "outputs": [
        {
          "internalType": "address",
          "name": "",
          "type": "address"
        }
      ],
      "stateMutability": "view",
      "type": "function",
      "constant": true
    },
    {
      "inputs": [],
      "name": "rate",
      "outputs": [
        {
          "internalType": "uint256",
          "name": "",
          "type": "uint256"
        }
      ],
      "stateMutability": "view",
      "type": "function",
      "constant": true
    },
    {
      "inputs": [
        {
          "internalType": "uint256",
          "name": "newRate",
          "type": "uint256"
        },
        {
          "internalType": "string",
          "name": "note",
          "type": "string"
        }
      ],
      "name": "setRate",
      "outputs": [],
      "stateMutability": "nonpayable",
      "type": "function"
    },
    {
      "inputs": [
        {
          "internalType": "contract IERC20",
          "name": "token",
          "type": "address"
        },
        {
          "internalType": "address",
          "name": "team",
          "type": "address"
        },
        {
          "internalType": "uint256",
          "name": "amount",
          "type": "uint256"
        },
        {
          "internalType": "string",
          "name": "race",
          "type": "string"
        }
      ],
      "name": "sponsorPayout",
      "outputs": [],
      "stateMutability": "nonpayable",
      "type": "function"
    },
    {
      "inputs": [
        {
          "internalType": "contract IERC20",
          "name": "tokenIn",
          "type": "address"
        },
        {
          "internalType": "contract IERC20",
          "name": "tokenOut",
          "type": "address"
        },
        {
          "internalType": "uint256",
          "name": "amountIn",
          "type": "uint256"
        },
        {
          "internalType": "string",
          "name": "race",
          "type": "string"
        }
      ],
      "name": "swap",
      "outputs": [
        {
          "internalType": "uint256",
          "name": "amountOut",
          "type": "uint256"
        }
      ],
      "stateMutability": "nonpayable",
      "type": "function"
    },
    {
      "inputs": [
        {
          "internalType": "contract IERC20",
          "name": "token",
          "type": "address"
        },
        {
          "internalType": "address",
          "name": "to",
          "type": "address"
        },
        {
          "internalType": "uint256",
          "name": "amount",
          "type": "uint256"
        }
      ],
      "name": "emergencyWithdraw",
      "outputs": [],
      "stateMutability": "nonpayable",
      "type": "function"
    }
  ],
  "bytecode": "0x608060405234801561001057600080fd5b506040516107aa3803806107aa83398101604081905261002f91610049565b600080546001600160a01b03191633179055600155610062565b60006020828403121561005b57600080fd5b5051919050565b610739806100716000396000f3fe608060405234801561001057600080fd5b50600436106100625760003560e01c806324d6a859146100675780632c4e722e1461007c5780633581a2a31461009857806354067f41146100ab5780638da5cb5b146100be578063e63ea408146100e9575b600080fd5b61007a6100753660046104d6565b6100fc565b005b61008560015481565b6040519081526020015b60405180910390f35b61007a6100a636600461053a565b610144565b6100856100b936600461053a565b610228565b6000546100d1906001600160a01b031681565b6040516001600160a01b03909116815260200161008f565b61007a6100f73660046105ad565b6103f9565b600183905560405133907f71c22b37f13009fedd412db7ab0cd6ed24573c2e3f438290f7df28e3e2e895939061013790869086908690610617565b60405180910390a2505050565b60405163a9059cbb60e01b81526001600160a01b0385811660048301526024820185905286169063a9059cbb906044016020604051808303816000875af1158015610193573d6000803e3d6000fd5b505050506040513d601f19601f820116820180604052508101906101b7919061063a565b6101dc5760405162461bcd60e51b81526004016101d390610663565b60405180910390fd5b836001600160a01b03167fc34d9b96350cb07d3c624b38085efba307dda4910011aaccfcd53e8796ef307984848460405161021993929190610617565b60405180910390a25050505050565b6040516323b872dd60e01b8152336004820152306024820152604481018490526000906001600160a01b038716906323b872dd906064016020604051808303816000875af115801561027e573d6000803e3d6000fd5b505050506040513d601f19601f820116820180604052508101906102a2919061063a565b6102e45760405162461bcd60e51b81526020600482015260136024820152721d1c985b9cd9995c919c9bdb4819985a5b1959606a1b60448201526064016101d3565b670de0b6b3a7640000600154856102fb919061068c565b61030591906106b7565b60405163a9059cbb60e01b8152336004820152602481018290529091506001600160a01b0386169063a9059cbb906044016020604051808303816000875af1158015610355573d6000803e3d6000fd5b505050506040513d601f19601f82011682018060405250810190610379919061063a565b6103955760405162461bcd60e51b81526004016101d390610663565b846001600160a01b0316866001600160a01b0316336001600160a01b03167f1e2e5ea08c1dc99fe97e4177552b806d875adf84e8c9706c0128f4a955b2d9bb878588886040516103e894939291906106d9565b60405180910390a495945050505050565b60405163a9059cbb60e01b81526001600160a01b0383811660048301526024820183905284169063a9059cbb906044016020604051808303816000875af1158015610448573d6000803e3d6000fd5b505050506040513d601f19601f8201168201806040525081019061046c919061063a565b6104885760405162461bcd60e51b81526004016101d390610663565b505050565b60008083601f84011261049f57600080fd5b50813567ffffffffffffffff8111156104b757600080fd5b6020830191508360208285010111156104cf57600080fd5b9250929050565b6000806000604084860312156104eb57600080fd5b83359250602084013567ffffffffffffffff81111561050957600080fd5b6105158682870161048d565b9497909650939450505050565b6001600160a01b038116811461053757600080fd5b50565b60008060008060006080868803121561055257600080fd5b853561055d81610522565b9450602086013561056d81610522565b935060408601359250606086013567ffffffffffffffff81111561059057600080fd5b61059c8882890161048d565b969995985093965092949392505050565b6000806000606084860312156105c257600080fd5b83356105cd81610522565b925060208401356105dd81610522565b929592945050506040919091013590565b81835281816020850137506000828201602090810191909152601f909101601f19169091010190565b8381526040602082015260006106316040830184866105ee565b95945050505050565b60006020828403121561064c57600080fd5b8151801515811461065c57600080fd5b9392505050565b6020808252600f908201526e1d1c985b9cd9995c8819985a5b1959608a1b604082015260600190565b80820281158282048414176106b157634e487b7160e01b600052601160045260246000fd5b92915050565b6000826106d457634e487b7160e01b600052601260045260246000fd5b500490565b8481528360208201526060604082015260006106f96060830184866105ee565b969550505050505056fea264697066735822122070c12e93f96bd7f66e7c7d03642a2ee06abc6674d890d87e12e69ac423fc9e0964736f6c63430008130033",
  "immutableReferences": {},
  "source": "// SPDX-License-Identifier: MIT\r\npragma solidity ^0.8.19;\r\n\r\ninterface IERC20 {\r\n    function balanceOf(address account) external view returns (uint256);\r\n    function transfer(address recipient, uint256 amount) external returns (bool);\r\n    function transferFrom(address sender,address recipient,uint256 amount) external returns (bool);\r\n    function approve(address spender, uint256 amount) external returns (bool);\r\n}\r\n\r\ncontract RaceSwap_vulnerable {\r\n    address public owner;\r\n    uint256 public rate; // scaled by 1e18\r\n\r\n    event SwapExecuted(address indexed user, address indexed tokenIn, address indexed tokenOut, uint256 amountIn, uint256 amountOut, string race);\r\n    event RateUpdated(address indexed updater, uint256 newRate, string note);\r\n    event SponsorPayoutExecuted(address indexed team, uint256 amount, string race);\r\n\r\n    constructor(uint256 initialRate) {\r\n        owner = msg.sender;\r\n        rate = initialRate;\r\n    }\r\n\r\n    // Vulnerability: no onlyOwner\r\n    function setRate(uint256 newRate, string calldata note) external {\r\n        rate = newRate;\r\n        emit RateUpdated(msg.sender, newRate, note);\r\n    }\r\n\r\n    // Sponsor payout (F1 use-case)\r\n    function sponsorPayout(IERC20 token, address team, uint256 amount, string calldata race) external {\r\n        require(token.transfer(team, amount), \"transfer failed\");\r\n        emit SponsorPayoutExecuted(team, amount, race);\r\n    }\r\n\r\n    // Vulnerability: No slippage protection\r\n    function swap(IERC20 tokenIn, IERC20 tokenOut, uint256 amountIn, string calldata race) external returns (uint256 amountOut) {\r\n        require(tokenIn.transferFrom(msg.sender, address(this), amountIn), \"transferFrom failed\");\r\n        amountOut = (amountIn * rate) / 1e18;\r\n        require(tokenOut.transfer(msg.sender, amountOut), \"transfer failed\");\r\n        emit SwapExecuted(msg.sender, address(tokenIn), address(tokenOut), amountIn, amountOut, race);\r\n        return amountOut;\r\n    }\r\n\r\n    // Emergency withdraw (demo)\r\n    function emergencyWithdraw(IERC20 token, address to, uint256 amount) external {\r\n        require(token.transfer(to, amount), \"transfer failed\");\r\n    }\r\n}\r\n",
  "sourcePath": "C:\\Users\\aarya\\OneDrive\\Desktop\\Formula Hacks\\FullCycleDeFiSecurity\\SmartContract\\contracts\\RaceSwap_vulnerable.sol",
  "compiler": {
    "name": "solc",
    "version": "0.8.19+commit.7dd6d404.Emscripten.clang"
  },
  "schemaVersion": "3.4.16",
  "updatedAt": "2025-10-30T11:38:33.550Z",
  "networkType": "ethereum",
  "devdoc": {
    "kind": "dev",
    "methods": {},
    "version": 1
  },
  "userdoc": {
    "kind": "user",
    "methods": {},
    "version": 1
  }
}